:100000000C942A000C9447000C9447000C94470071
:100010000C9447000C9447000C9447000C94470044
:100020000C9447000C9447000C9447000C94470034
:100030000C9447000C9447000C9447000C94470024
:100040000C9447000C9447000C9447000C94470014
:100050000C94470011241FBECFE5D8E0DEBFCDBF12
:1000600010E0A0E6B0E0E0E9F3E002C005900D92F8
:10007000A036B107D9F720E0A0E6B0E001C01D929C
:10008000A036B207E1F70E949F010C94C6010C94C0
:10009000000040E00E945C0008950E944C01089519
:1000A00041E00E945C00089541E00E94D400089560
:1000B00040E00E94D4000895823429F118F481347C
:1000C00039F008958334D1F1843409F452C008958D
:1000D000413059F42AB381E090E002C0880F991FA3
:1000E0006A95E2F7822B8ABB089541115CC02AB35E
:1000F00081E090E002C0880F991F6A95E2F7809531
:1001000082238ABB0895413059F427B381E090E0FF
:1001100002C0880F991F6A95E2F7822B87BB08956A
:10012000411141C027B381E090E002C0880F991FC0
:100130006A95E2F78095822387BB0895413059F490
:1001400024B381E090E002C0880F991F6A95E2F71E
:10015000822B84BB0895411126C024B381E090E036
:1001600002C0880F991F6A95E2F78095822384BBAD
:100170000895413059F421B381E090E002C0880F26
:10018000991F6A95E2F7822B81BB089541110BC03C
:1001900021B381E090E002C0880F991F6A95E2F7D1
:1001A0008095822381BB0895823429F118F481342B
:1001B00039F008958334D1F1843409F452C008959C
:1001C000413059F42BB381E090E002C0880F991FB1
:1001D0006A95E2F7822B8BBB089541115CC02BB36B
:1001E00081E090E002C0880F991F6A95E2F7809540
:1001F00082238BBB0895413059F428B381E090E00D
:1002000002C0880F991F6A95E2F7822B88BB089578
:10021000411141C028B381E090E002C0880F991FCE
:100220006A95E2F78095822388BB0895413059F49E
:1002300025B381E090E002C0880F991F6A95E2F72C
:10024000822B85BB0895411126C025B381E090E043
:1002500002C0880F991F6A95E2F78095822385BBBB
:100260000895413059F422B381E090E002C0880F34
:10027000991F6A95E2F7822B82BB089541110BC04A
:1002800022B381E090E002C0880F991F6A95E2F7DF
:100290008095822382BB08958234D9F018F481348A
:1002A00031F00895833439F18434B9F1089529B3D4
:1002B00081E090E0062E02C0880F991F0A94E2F7B1
:1002C00002C0959587956A95E2F78223FA018083AB
:1002D000089526B381E090E0062E02C0880F991F92
:1002E0000A94E2F702C0959587956A95E2F7822312
:1002F000FA018083089523B381E090E0062E02C0C6
:10030000880F991F0A94E2F702C0959587956A9520
:10031000E2F78223FA018083089520B381E090E020
:10032000062E02C0880F991F0A94E2F702C0959525
:1003300087956A95E2F78223FA0180830895CF9327
:10034000DF931F92CDB7DEB760E070E082E490E00B
:100350000E94490060E083E40E945000AE014F5FBC
:100360005F4F60E070E082E490E00E944D00898180
:10037000813029F460E083E40E945400EFCF8111C2
:10038000EDCF60E083E40E945800E8CFF894FFCFFF
:00000001FF
