:100000000C942A000C9447000C9447000C94470071
:100010000C9447000C9447000C9447000C94470044
:100020000C9447000C9447000C9447000C94470034
:100030000C9447000C9447000C9447000C94470024
:100040000C9447000C9447000C9447000C94470014
:100050000C94470011241FBECFE5D8E0DEBFCDBF12
:1000600010E0A0E6B0E0E2ECF7E002C005900D92EF
:10007000A436B107D9F720E0A4E6B0E001C01D9294
:10008000A436B207E1F70E94B0030C94DF030C948E
:10009000000041E060E082E40E94EF0041E061E0A6
:1000A00082E40E94EF00089541E062E082E40E9451
:1000B000EF0041E064E082E40E94EF00089541E037
:1000C00060E083E40E94EF0041E061E083E40E948D
:1000D000EF00089541E062E083E40E94EF0041E018
:1000E00063E083E40E94EF0008950E9449000E94AB
:1000F000540008950E945F000E946A0008950E94C3
:1001000075000E947A000E9498030E949D0340E0BF
:1001100060E082E40E94670140E061E082E40E94C6
:10012000670140E062E082E40E94670140E064E031
:1001300082E40E94670140E060E083E40E9467017E
:1001400040E061E083E40E94670140E062E083E414
:100150000E94670140E063E083E40E946701089524
:1001600041E060E083E40E94670140E061E083E4F5
:100170000E946701089541E062E083E40E94670104
:1001800040E063E083E40E94670108950E94B000AC
:100190000E94BB00089540E060E082E40E94670195
:1001A00041E061E082E40E946701089540E062E07E
:1001B00082E40E94670141E064E082E40E946701FA
:1001C00008950E94CB000E94D60008950E94E1008D
:1001D0000E94C600089584E60E949F030895823419
:1001E00029F118F4813439F008958334D1F184343D
:1001F00009F452C00895413059F42AB381E090E0E7
:1002000002C0880F991F6A95E2F7822B8ABB089576
:1002100041115CC02AB381E090E002C0880F991FB1
:100220006A95E2F7809582238ABB0895413059F49C
:1002300027B381E090E002C0880F991F6A95E2F72A
:10024000822B87BB0895411141C027B381E090E024
:1002500002C0880F991F6A95E2F78095822387BBB9
:100260000895413059F424B381E090E002C0880F32
:10027000991F6A95E2F7822B84BB0895411126C02D
:1002800024B381E090E002C0880F991F6A95E2F7DD
:100290008095822384BB0895413059F421B381E0D5
:1002A00090E002C0880F991F6A95E2F7822B81BB0C
:1002B000089541110BC021B381E090E002C0880F86
:1002C000991F6A95E2F78095822381BB0895823455
:1002D00029F118F4813439F008958334D1F184344C
:1002E00009F452C00895413059F42BB381E090E0F5
:1002F00002C0880F991F6A95E2F7822B8BBB089585
:1003000041115CC02BB381E090E002C0880F991FBF
:100310006A95E2F7809582238BBB0895413059F4AA
:1003200028B381E090E002C0880F991F6A95E2F738
:10033000822B88BB0895411141C028B381E090E031
:1003400002C0880F991F6A95E2F78095822388BBC7
:100350000895413059F425B381E090E002C0880F40
:10036000991F6A95E2F7822B85BB0895411126C03B
:1003700025B381E090E002C0880F991F6A95E2F7EB
:100380008095822385BB0895413059F422B381E0E2
:1003900090E002C0880F991F6A95E2F7822B82BB1A
:1003A000089541110BC022B381E090E002C0880F94
:1003B000991F6A95E2F78095822382BB0895CF93B7
:1003C000DF93EC0113BE15BC1FBC1EBC88818111DC
:1003D000A4C08981811107C083B78F7B83BF83B796
:1003E000877F83BF53C08981823091F441E067E009
:1003F00082E40E94EF0083B7806483BF83B7886084
:1004000083BF83B7806183BF83B7806283BF3EC0F1
:100410008981813091F441E063E082E40E94EF0041
:1004200083B7806483BF83B7886083BF83B78F7EC1
:1004300083BF83B7806283BF29C08981843091F4F0
:1004400041E063E082E40E94EF0083B7806483BFF1
:1004500083B7877F83BF83B7806183BF83B78062A1
:1004600083BF14C08981833089F441E063E082E472
:100470000E94EF0083B7806483BF83B7877F83BF09
:1004800083B78F7E83BF83B7806283BF8A818111E8
:1004900002C013BE4AC18A81813051F483B78160A2
:1004A00083BF83B78D7F83BF83B78B7F83BF3DC1FE
:1004B0008A81823051F483B78E7F83BF83B7826095
:1004C00083BF83B78B7F83BF30C18A81833051F470
:1004D00083B7816083BF83B7826083BF83B78B7F1D
:1004E00083BF23C18A81843051F483B78E7F83BF59
:1004F00083B78D7F83BF83B7846083BF16C18A8132
:10050000853009F012C183B7816083BF83B78D7FC7
:1005100083BF83B7846083BF08C18881823009F0BC
:100520009CC08981811107C085B58F7B85BD85B54C
:10053000877F85BD4BC08981813091F441E067E0C0
:1005400084E40E94EF0085B5806485BD85B5886030
:1005500085BD85B58F7E85BD85B5806285BD36C07C
:100560008981823091F441E067E084E40E94EF00E9
:1005700085B5806485BD85B5886085BD85B580619C
:1005800085BD85B5806285BD21C08981843071F4C7
:100590008F9A85B5806485BD85B5877F85BD85B516
:1005A000806185BD85B5806285BD10C0898183303D
:1005B00069F48F9A85B5806485BD85B5877F85BDD3
:1005C00085B58F7E85BD85B5806285BD8A818111A7
:1005D00002C015BCAAC08A81813051F485B5816002
:1005E00085BD85B58D7F85BD85B58B7F85BD9DC05E
:1005F0008A81823051F485B58E7F85BD85B5826054
:1006000085BD85B58B7F85BD90C08A81833051F4CF
:1006100085B5816085BD85B5826085BD85B58B7FDB
:1006200085BD83C08A81843051F485B58E7F85BDB8
:1006300085B58D7F85BD85B5846085BD76C08A8191
:10064000853009F072C085B5816085BD85B58D7F27
:1006500085BD85B5846085BD68C08881813009F01D
:1006600064C0898181110DC08FB58E7F8FBD8FB51C
:100670008D7F8FBD8EB5877F8EBD8EB58F7E8EBDF3
:100680000FC08981813061F48FB581608FBD8FB5D6
:100690008D7F8FBD8EB588608EBD8EB58F7E8EBDF1
:1006A0008A81811102C01EBC40C08A81813051F410
:1006B0008EB581608EBD8EB58D7F8EBD8EB58B7FE4
:1006C0008EBD33C08A81823051F48EB58E7F8EBD4F
:1006D0008EB582608EBD8EB58B7F8EBD26C08A8121
:1006E000833051F48EB581608EBD8EB582608EBD33
:1006F0008EB58B7F8EBD19C08A81843051F48EB542
:100700008E7F8EBD8EB58D7F8EBD8EB584608EBD85
:100710000CC08A81853049F48EB581608EBD8EB55E
:100720008D7F8EBD8EB584608EBDDF91CF91089593
:1007300080E690E00E94DF01089512BE08959FEFC9
:10074000980F943648F4982F80E064E670E00E9499
:10075000B70361506CBF0895811101C01CBE08959C
:100760000E947F000E94EB000E94E600FDCF97FBF5
:10077000072E16F4009407D077FD09D00E94CB0312
:1007800007FC05D03EF4909581959F4F0895709594
:1007900061957F4F0895AA1BBB1B51E107C0AA1F9B
:1007A000BB1FA617B70710F0A61BB70B881F991F12
:1007B0005A95A9F780959095BC01CD010895F894BC
:0207C000FFCF69
:0407C200000105002D
:00000001FF
