:100000000C942A000C9447000C9447000C94470071
:100010000C9447000C9447000C9447000C94470044
:100020000C9447000C9447000C9447000C94470034
:100030000C9447000C9447000C9447000C94470024
:100040000C9447000C9447000C9447000C94470014
:100050000C94470011241FBECFE5D8E0DEBFCDBF12
:1000600010E0A0E6B0E0E2EAF6E002C005900D92F2
:10007000A036B107D9F720E0A0E6B0E001C01D929C
:10008000A036B207E1F70E9493010C944F030C9441
:10009000000041E00E94A000089541E00E94180184
:1000A000089540E00E941801089541E00E94A000D8
:1000B000089540E00E94A0000895CF93DF93C82FD9
:1000C000D62F41E00E94180185E38A95F1F70000E0
:1000D00040E06D2F8C2F0E941801DF91CF91089581
:1000E0000E9490018EB580648EBD88B7806288BF03
:1000F00088B7846088BF08B600FEFDCF0E949001DB
:100100008EB58F7B8EBD88B7806288BF88B78460CC
:1001100088BF08B600FEFDCF089566B577B580E0CC
:1001200090E00E94300220E030E040E85DE30E9471
:10013000E20220E030E048E652E40E94BE01089569
:10014000823429F118F4813439F008958334D1F1DF
:10015000843409F452C00895413059F42AB381E03F
:1001600090E002C0880F991F6A95E2F7822B8ABB44
:10017000089541115CC02AB381E090E002C0880F6D
:10018000991F6A95E2F7809582238ABB08954130D2
:1001900059F427B381E090E002C0880F991F6A9557
:1001A000E2F7822B87BB0895411141C027B381E05C
:1001B00090E002C0880F991F6A95E2F7809582232C
:1001C00087BB0895413059F424B381E090E002C028
:1001D000880F991F6A95E2F7822B84BB089541111D
:1001E00026C024B381E090E002C0880F991F6A9571
:1001F000E2F78095822384BB0895413059F421B3FE
:1002000081E090E002C0880F991F6A95E2F7822B87
:1002100081BB089541110BC021B381E090E002C081
:10022000880F991F6A95E2F78095822381BB089514
:10023000823429F118F4813439F008958334D1F1EE
:10024000843409F452C00895413059F42BB381E04D
:1002500090E002C0880F991F6A95E2F7822B8BBB52
:10026000089541115CC02BB381E090E002C0880F7B
:10027000991F6A95E2F7809582238BBB08954130E0
:1002800059F428B381E090E002C0880F991F6A9565
:10029000E2F7822B88BB0895411141C028B381E069
:1002A00090E002C0880F991F6A95E2F7809582233B
:1002B00088BB0895413059F425B381E090E002C035
:1002C000880F991F6A95E2F7822B85BB089541112B
:1002D00026C025B381E090E002C0880F991F6A957F
:1002E000E2F78095822385BB0895413059F422B30B
:1002F00081E090E002C0880F991F6A95E2F7822B97
:1003000082BB089541110BC022B381E090E002C08E
:10031000880F991F6A95E2F78095822382BB089522
:100320001DBC1CBC089565E084E40E94550066E095
:1003300084E40E94590065E083E40E94490065E07E
:1003400084E40E945D000E9470000E948D0020E005
:1003500030E040EA50E40E94B901811105C065E037
:1003600083E40E944D00EBCF65E083E40E945100DE
:10037000E6CF0E946D0208F481E008950E94D20148
:100380000C94A8020E94A10258F00E949A0240F028
:1003900029F45F3F29F00C94910251110C94DC0276
:1003A0000C9497020E94B90268F39923B1F3552384
:1003B00091F3951B550BBB27AA2762177307840778
:1003C00038F09F5F5F4F220F331F441FAA1FA9F30E
:1003D00035D00E2E3AF0E0E832D091505040E695FC
:1003E000001CCAF72BD0FE2F29D0660F771F881F5D
:1003F000BB1F261737074807AB07B0E809F0BB0B50
:10040000802DBF01FF2793585F4F3AF09E3F510563
:1004100078F00C9491020C94DC025F3FE4F3983E78
:10042000D4F3869577956795B795F7959F5FC9F74C
:10043000880F911D9695879597F90895E1E0660FCD
:10044000771F881FBB1F621773078407BA0720F046
:10045000621B730B840BBA0BEE1F88F7E0950895AF
:10046000E89409C097FB3EF490958095709561954E
:100470007F4F8F4F9F4F9923A9F0F92F96E9BB2704
:100480009395F695879577956795B795F111F8CF80
:10049000FAF4BB0F11F460FF1BC06F5F7F4F8F4FEB
:1004A0009F4F16C0882311F096E911C0772321F0E1
:1004B0009EE8872F762F05C0662371F096E8862F79
:1004C00070E060E02AF09A95660F771F881FDAF7D0
:1004D000880F9695879597F90895990F0008550FFD
:1004E000AA0BE0E8FEEF16161706E807F907C0F0BA
:1004F00012161306E407F50798F0621B730B840BC2
:10050000950B39F40A2661F0232B242B252B21F49B
:1005100008950A2609F4A140A6958FEF811D811D3B
:10052000089597F99F6780E870E060E008959FEF75
:1005300080EC089500240A9416161706180609067A
:10054000089500240A941216130614060506089549
:10055000092E0394000C11F4882352F0BB0F40F4D1
:10056000BF2B11F460FF04C06F5F7F4F8F4F9F4F11
:10057000089557FD9058440F551F59F05F3F71F093
:100580004795880F97FB991F61F09F3F79F08795FA
:100590000895121613061406551FF2CF4695F1DF83
:1005A00008C0161617061806991FF1CF8695710513
:1005B000610508940895E894BB2766277727CB0147
:1005C00097F908950E94F5020C94A8020E949A02DD
:1005D00038F00E94A10220F0952311F00C949102B2
:1005E0000C94970211240C94DC020E94B90270F35F
:1005F000959FC1F3950F50E0551F629FF001729FC8
:10060000BB27F00DB11D639FAA27F00DB11DAA1FD6
:10061000649F6627B00DA11D661F829F2227B00D23
:10062000A11D621F739FB00DA11D621F839FA00DAE
:10063000611D221F749F3327A00D611D231F849FFE
:10064000600D211D822F762F6A2F11249F57504055
:100650009AF0F1F088234AF0EE0FFF1FBB1F661FD0
:10066000771F881F91505040A9F79E3F510580F099
:100670000C9491020C94DC025F3FE4F3983ED4F3B7
:10068000869577956795B795F795E7959F5FC1F73D
:10069000FE2B880F911D9695879597F90895F894EC
:0206A000FFCF8A
:00000001FF
